:100000000C94A3000C94E3030C94BC030C94CB005D
:100010000C94CB000C94CB000C94CB000C94CB0034
:100020000C94CB000C94CB000C94CB000C94CB0024
:100030000C94CB000C94CB000C94CB000C94CB0014
:100040000C9472030C94CB000C94CB000C94CB005A
:100050000C94CB000C94CB000C94CB000C94CB00F4
:100060000C9434050C94CB0007634236B79BD8A799
:100070001A39685618AEBAAB558C1D3CB7CC5763CD
:10008000BD6DEDFD753EF6177231BF000000803F7B
:1000900008000000BE922449123EABAAAA2ABECD97
:1000A000CCCC4C3E00000080BEABAAAAAA3E000009
:1000B0000000BF000000803F000000000008417801
:1000C000D3BB4387D1133D190E3CC3BD4282AD2B38
:1000D0003E68EC8276BED98FE1A93E4C80EFFFBE30
:1000E00001C4FF7F3F00000000000000000024006A
:1000F00027002A0000000000250028002B00000037
:10010000000023002600290004040404040404045D
:1001100002020202020203030303030301020408B2
:100120001020408001020408102001020408102061
:1001300000000008000201000003040700000000A6
:1001400000000000CE0D11241FBECFEFD8E0DEBFAF
:10015000CDBF11E0A0E0B1E0E2EDF4E202C0059015
:100160000D92A036B107D9F722E0A0E6B1E001C0B8
:100170001D92A53CB207E1F710E0C3EAD0E004C04D
:100180002197FE010E945C12C23AD107C9F70E9472
:10019000A3080C9467120C9400000895CF92DF928C
:1001A000EF92FF920F931F93CF93DF936C017A012D
:1001B0008B01C0E0D0E0CE15DF0589F0D8016D914C
:1001C0008D01D601ED91FC910190F081E02DC601E9
:1001D0000995892B11F47E0102C02196ECCFC7014D
:1001E000DF91CF911F910F91FF90EF90DF90CF9013
:1001F0000895833081F028F4813099F08230A1F0A5
:1002000008958730A9F08830B9F08430D1F4809116
:1002100080008F7D03C0809180008F778093800065
:10022000089584B58F7702C084B58F7D84BD08950D
:100230008091B0008F7703C08091B0008F7D809354
:10024000B0000895CF93DF93282F30E0F901E05DEF
:10025000FE4F8491F901E45EFE4FD491F901E85F0D
:10026000FE4FC491CC2391F081110E94F900EC2F34
:10027000F0E0EE0FFF1FE250FF4FA591B491EC911B
:10028000ED2381E090E021F480E002C080E090E086
:10029000DF91CF910895862F0C9422011F93CF9365
:1002A000DF93282F30E0F901E05DFE4F8491F901E2
:1002B000E45EFE4FD491F901E85FFE4FC491CC2378
:1002C000C9F0162F81110E94F900EC2FF0E0EE0F1B
:1002D000FF1FEC50FF4FA591B4918FB7F894111107
:1002E00005C09C91ED2FE095E92302C0EC91ED2B28
:1002F000EC938FBFDF91CF911F910895862F642FCC
:100300000C944E01CF93DF9390E0FC01E45EFE4F2E
:100310002491FC01E85FFE4F8491882361F190E015
:10032000880F991FFC01E651FF4FC591D491FC0144
:10033000EC50FF4FA591B491611109C09FB7F8949B
:100340008881209582238883EC912E230BC0623014
:1003500061F49FB7F8943881822F80958323888336
:10036000EC912E2B2C939FBF06C08FB7F894E88199
:100370002E2B28838FBFDF91CF91089583B78E7F77
:1003800083BF88E99AE39093AB028093AA0260E06E
:1003900088E00E94820181E08093B2010895862F57
:1003A000642F0C9482013FB7F8948091AE01909134
:1003B000AF01A091B001B091B10126B5A89B05C0D5
:1003C0002F3F19F00196A11DB11D3FBFBA2FA92FD4
:1003D000982F8827820F911DA11DB11DBC01CD0151
:1003E00042E0660F771F881F991F4A95D1F708953D
:1003F00021E001C0220F6A95EAF7DC011C962C93DC
:100400001C971A965C934E931997ED91FC91048476
:10041000F585E02D60E00994DC01ED91FC91068406
:10042000F785E02D41E0099581E090E00895089579
:10043000089585ED8093BC008091BC0084FDFCCFC5
:1004400010920A02089540918201262F30E0240F75
:10045000311D21323105DCF420910A022430C9F427
:10046000FC0180E090E0861758F4309182012191E0
:10047000DC01A05ABE4FA30FB11D2C930196F3CF00
:1004800080918201680F6093820180E0089581E08D
:10049000089582E00895089581E090E03091A801E8
:1004A0002091A701321710F480E090E0919581959A
:1004B000910908958091A8019091A701891730F4BE
:1004C0008F5F8093A80180E090E008958FEF9FEF09
:1004D00008958091A70190E02091A801821B9109C5
:1004E0000895CF92DF92EF92FF920F931F93CF93D5
:1004F000DF937C01262F972F8A0180910B0288239E
:1005000091F0C62FD72F6E01C40ED51ECC15DD0578
:1005100071F06991D701ED91FC910190F081E02D8E
:10052000C7010995F3CF642F822F0E942302C801CF
:10053000DF91CF911F910F91FF90EF90DF90CF90BF
:100540000895CF93DF931F92CDB7DEB769832091D3
:100550000B022223D1F020912E02203240F021E024
:1005600030E0FC013383228380E090E015C080916D
:100570000C02E82FF0E0E35FFD4F998190838F5FDD
:1005800080930C0280932E0205C061E0CE0101969B
:100590000E94230281E090E00F90DF91CF910895B7
:1005A000089580E090E008950E946212FC0123818A
:1005B0002223B9F09181909569236083828191E033
:1005C00090930B0280932D0210920C0210922E0237
:1005D0008FE292E00E94A1020E941207282F30E0D1
:1005E00002C020E030E081E090E0232B11F080E0B9
:1005F00090E00895EF92FF920F931F93CF938C0199
:10060000FC01759684E0C0E060FF02C09081C92BB8
:100610006695815031968111F7CF413011F4F80180
:100620004489F8018585C82BC42B7801FEE0EF0EC4
:10063000F11CF80162896C2BC7010E94D602F801F7
:10064000628960956C23C701CF911F910F91FF9034
:10065000EF900C94D6020F931F93CF93DF93062F46
:100660000F70423019F440E0602F10C0142F262F75
:10067000EC0130E0B90184E0759567958A95E1F762
:10068000CE010E94FA02412F602FCE01DF91CF915F
:100690001F910F910C94FA02FC0184858823A9F024
:1006A000218532852115310519F4611106C007C075
:1006B0002130310521F4611102C0858701C0158602
:1006C0006585CF010E960C94D60208952FB7F89445
:1006D0006091AA017091AB018091AC019091AD0144
:1006E0002FBF08951F920F920FB60F9211242F93D0
:1006F0003F938F939F93AF93BF938091AA01909163
:10070000AB01A091AC01B091AD013091A90123E002
:10071000230F2D3720F40196A11DB11D05C026E839
:10072000230F0296A11DB11D2093A9018093AA0158
:100730009093AB01A093AC01B093AD018091AE0159
:100740009091AF01A091B001B091B1010196A11DAE
:10075000B11D8093AE019093AF01A093B001B0930F
:10076000B101BF91AF919F918F913F912F910F90C8
:100770000FBE0F901F9018951F920F920FB60F92F9
:1007800011242F933F934F935F936F937F938F9396
:100790009F93AF93BF93EF93FF93E0910201F0918A
:1007A00003010995FF91EF91BF91AF919F918F91B7
:1007B0007F916F915F914F913F912F910F900FBE5D
:1007C0000F901F9018951F920F920FB60F92112441
:1007D0002F933F934F935F936F937F938F939F9349
:1007E000AF93BF93EF93FF93E0910001F09101016C
:1007F0000995FF91EF91BF91AF919F918F917F915B
:100800006F915F914F913F912F910F900FBE0F907D
:100810001F901895DC01ED91FC910684F785E02D81
:1008200040E0099461E00E940A048BE39FE1019794
:10083000F1F708958F929F92AF92BF92CF92DF927D
:10084000EF92FF920F931F93CF93DF93EC0142300F
:1008500018F08C8188608C834F836887222329F06D
:10086000413019F48C8184608C830E94D3014B0148
:100870005C0184E6C82ED12CE12CF12C0E94D3011E
:10088000DC01CB0188199909AA09BB09883E93406C
:10089000A105B10558F021E0C21AD108E108F1081C
:1008A00088EE880E83E0981EA11CB11CC114D104EF
:1008B000E104F10419F76C8164FD31C0E881F9812C
:1008C0000684F785E02D42E063E0CE0109958BE4D4
:1008D00096E40197F1F7E881F9810684F785E02D28
:1008E00042E063E0CE01099503E512E0C8010197FB
:1008F000F1F7E881F9810684F785E02D42E063E0B5
:10090000CE010995C8010197F1F7E881F9810684C4
:10091000F785E02D42E062E0CE01099517C06062E4
:10092000CE010E940A048BE496E40197F1F76C81F2
:100930006062CE010E940A0403E512E0C80101973B
:10094000F1F76C816062CE010E940A04C801019730
:10095000F1F76C816062CE010E940A048BEE90E098
:100960000197F1F784E08D836CE0CE010E940A04C8
:10097000CE010E94120482E08E8366E0CE010E94C6
:100980000A04E881F9810484F585E02D6FEFCE013A
:10099000DF91CF911F910F91FF90EF90DF90CF905B
:1009A000BF90AF909F908F900994EF92FF920F931A
:1009B0001F93CF93DF93EC01062FF42EE22E8B854D
:1009C000888B1092A8011092A70110920C0210922D
:1009D0002E0210920A0211E0109309021092E40113
:1009E00061E082E10E944E0161E083E10E944E01DC
:1009F0008091B9008E7F8093B9008091B9008D7F7E
:100A00008093B90088E48093B80085E48093BC00AB
:100A1000888910930B0280932D0210920C02109281
:100A20002E020E94120791E0811190E0998B992388
:100A300029F08FE292E00E945A028E8789898823EA
:100A400039F01F861C8260E0CE010E960E94D6020D
:100A50002E2D4F2D602FCE01DF91CF911F910F9141
:100A6000FF90EF900C941A041F920F920FB60F9202
:100A700011242F933F934F935F936F937F938F93A3
:100A80009F93AF93BF93EF93FF938091B900887FBB
:100A9000803609F49CC068F5883209F45BC090F494
:100AA000803109F454C038F4882309F4F6C0883042
:100AB00009F44DC0F6C0883109F44CC0803209F405
:100AC0005DC0EFC0803409F468C048F4803309F495
:100AD00055C0883309F0E5C080930802D8C080353E
:100AE00009F44FC0883509F45DC0883409F0D9C0D5
:100AF000D6C0883909F4C7C0A8F4883709F467C09C
:100B000038F4883609F463C0803709F460C0C9C07E
:100B1000883809F4B8C0803909F45FC0803809F01A
:100B2000C0C05BC0803B09F486C038F4803A09F449
:100B300066C0883A09F47FC0B4C0803C09F4A7C0FD
:100B4000883C09F4A4C0883B09F48AC0AAC08091FB
:100B5000E50110C09091070280910602981770F588
:100B6000E091070281E08E0F80930702F0E0EA51E6
:100B7000FE4F80818093BB0085EC86C08093080285
:100B80008EC0E091070281E08E0F80930702809172
:100B9000BB00F0E0EA51FE4F808390910702809104
:100BA00006026EC0E091070281E08E0F809307027B
:100BB0008091BB00F0E0EA51FE4F808380910902F2
:100BC00081116DC081E08093E40184EA61C083E01B
:100BD00080930A021092A601CFCF8091A6018032A5
:100BE00008F051C0E091A60181E08E0F8093A6012C
:100BF0008091BB00F0E0EA57FE4F8083BDCF85ECCB
:100C00008093BC0010920A028091A601803230F4D9
:100C1000E091A601F0E0EA57FE4F10826091A60134
:100C200070E0E0918401F091850186E891E00995FA
:100C30001092A60136C084E080930A0210928301CC
:100C400010928201E0918001F091810109958091DB
:100C50008201811105C081E08093820110926001C0
:100C6000E091830181E08E0F80938301F0E0E05AF0
:100C7000FE4F80818093BB0090918301809182011F
:100C8000981708F479CF85E88093BC000AC085ECFA
:100C90008093BC0010920A0204C0109208020E94C5
:100CA0001902FF91EF91BF91AF919F918F917F9129
:100CB0006F915F914F913F912F910F900FBE0F90C9
:100CC0001F90189596E0899FD0011124A55CBD4F17
:100CD00090967C936E935F9791E091969C939197F9
:100CE0009091A702E091A802F091A902992339F00E
:100CF000309751F0811108C08091570204C030979D
:100D000019F05C968C9109940895009769F0FC01A4
:100D100001900020E9F73197AF01481B590BBC0146
:100D20008CEA92E00C94CE0080E090E008958F92DF
:100D30009F92AF92BF920F931F93CF93DF93CDB744
:100D4000DEB7A1970FB6F894DEBF0FBECDBF19A2D4
:100D5000423008F44AE08E010F5D1F4F842E912C23
:100D6000A12CB12CA50194010E943A12E62FB901E1
:100D7000CA0101501109EA3014F4E05D01C0E95CD8
:100D8000D801EC93232B242B252B61F7C8010E945B
:100D90008506A1960FB6F894DEBF0FBECDBFDF91DA
:100DA000CF911F910F91BF90AF909F908F9008951A
:100DB000CF93DF93CDB7DEB728970FB6F894DEBF99
:100DC0000FBECDBF1D8290E49E8324E12F8324E5D6
:100DD000288719829A8390E19B8390E59C83909168
:100DE000B302691710F06FEF690F4091B402262F1C
:100DF00030E0FE01E20FF31F403121F4943011F492
:100E0000918101C09581682F690F60688CEA92E03A
:100E100028960FB6F894DEBF0FBECDBFDF91CF91FD
:100E20000C940A0420912E0290912D02213208F098
:100E30004AC080910A028111FCCF32E030930A024D
:100E400031E0309309023FEF30930802109207021D
:100E500020930602ADE0B2E046EE51E0FA013E2FEB
:100E6000341B321718F43D913193F9CF1092E501FC
:100E70002091E501990F922B9093E5019091E40167
:100E8000913061F41092E4019091E5019093BB00E0
:100E90009091BC0093FDF8CF95EC01C095EE909336
:100EA000BC0090910A029230E1F3909108029F3FBA
:100EB00079F080910802803241F0809108028033FD
:100EC00031F084E005C081E003C082E001C083E02E
:100ED00010920C0210922E0210920B0208954F9263
:100EE0005F926F927F928F929F92AF92BF92CF92BA
:100EF000DF92EF92FF92CF936B017C019B01AC01DB
:100F00000E940011882319F084E591E027C0460172
:100F10005701E894B7F82FEF3FEF4FE75FE7C501C0
:100F2000B4010E94001181110DC02FEF3FEF4FE778
:100F30005FE7C501B4010E94DF0E18161CF488E5B6
:100F400091E00CC02FEF3FEF4FE75FE4C701B60120
:100F50000E943E1018168CF48CE591E0CF91FF9022
:100F6000EF90DF90CF90BF90AF909F908F907F9049
:100F70006F905F904F900C9485062FEF3FEF4FE7F7
:100F80005FECC701B6010E94DF0E87FDE5CF20E0D0
:100F900030E0A901C701B6010E94DF0E87FF11C032
:100FA000E091AC02F091AD020190F081E02D6DE294
:100FB0008CEA92E009955C01F7FAF094F7F8F09466
:100FC00002C0A12CB12C26E137EB41E558E3C70163
:100FD000B6010E94730E2B013C010E945D0F6B0154
:100FE0007C010E948C0F9B01AC01C301B2010E94E5
:100FF000720E2B013C014AE0C701B6010E94970620
:101000007C01EA0CFB1CE091AC02F091AD02019076
:10101000F081E02D6EE28CEA92E00995E80EF91E6F
:10102000C5E0C15019F120E030E040E251E4C301D5
:10103000B2010E9443102B013C010E945D0F4B0145
:10104000A12CB12C4AE0C501B4010E949706E80E1C
:10105000F91EC501B4010E948C0F9B01AC01C301B4
:10106000B2010E94720E2B013C01DBCFC701CF9170
:10107000FF90EF90DF90CF90BF90AF909F908F90B8
:101080007F906F905F904F9008950F931F93CF9331
:10109000DF93C82FD62F86E0C89FF0011124E55CAE
:1010A000FD4F11A2878D90A181309105F1F01CF4C4
:1010B000892B49F043C082309105A9F10397F1F5DE
:1010C00060E070E034C06623C9F161E070E08C2F0D
:1010D0000E9462060E9466036093930270939402DA
:1010E000809395029093960229C00E946603009116
:1010F0009302109194022091950230919602AB01D7
:10110000BC01401B510B620B730B8091A5029091A7
:10111000A602A0E0B0E084179507A607B70718F469
:1011200062E070E004C0D11109C063E070E08C2F70
:10113000DF91CF911F910F910C946206DF91CF91B7
:101140001F910F910895789484B5826084BD84B511
:10115000816084BD85B5826085BD85B5816085BDB2
:1011600080916E00816080936E001092810080916A
:1011700081008260809381008091810081608093F2
:101180008100809180008160809380008091B10017
:1011900084608093B1008091B00081608093B00042
:1011A00080917A00846080937A0080917A008260D6
:1011B00080937A0080917A00816080937A00809198
:1011C0007A00806880937A001092C10060E08BE022
:1011D0000E94820160E083E00E94820161E08DE074
:1011E0000E94820161E08DE00E944E0120E042E019
:1011F00060E18CEA92E00E94D5048CEA92E00E94C1
:1012000012048DE491E00E94850661E080E00E9476
:10121000D8068DE491E00E9485068091E1019091CD
:10122000E201019729F4109207011092060106C00D
:1012300081E090E09093070180930601C12CD12CAE
:101240007601C394CFEFDFEF81E08093A7020E9485
:1012500066030091970210919802209199023091B3
:101260009A02AB01BC01401B510B620B730B8091C6
:10127000A3029091A402A0E0B0E084179507A6070E
:10128000B70708F010C110E08091A102181760F4B0
:10129000E0919D02F0919E02E10FF11D62E08081DC
:1012A0000E9482011F5FF0CF512C8091A20258163C
:1012B00008F069C0A52CB12CE0919F02F091A0022A
:1012C000EA0DFB1D61E080810E948201E0919F0296
:1012D000F091A002EA0DFB1D60E080810E944E01AA
:1012E000D701C601052C04C0880F991FAA1FBB1F78
:1012F0000A94D2F78C014C0180949094412C8091F7
:10130000A102481648F5642C712CE0919D02F091E1
:101310009E02E60DF71D80810E94220193012C5F41
:101320003F4F892B59F4C901880F991FFC01E55CD7
:10133000FD4F80819181802B912B0AC0C901880FBC
:10134000991FFC01E55CFD4F8081918188219921E5
:10135000918380834394D3CFE0919F02F091A002C8
:10136000EA0DFB1D61E080810E944E0180919F0289
:101370009091A002FC01EA0DFB1D60E080810E94BB
:101380008201539492CFE7E5F2E083819481892B27
:1013900021F41082D283C1831582369682E0E3392C
:1013A000F80799F7B12C96E0A92E8091A102B81602
:1013B00008F053C0912C0B2D10E0000F111F0D5B96
:1013C0001D4F2091A202921608F045C0F8016081DD
:1013D0007181092C02C0769567950A94E2F76170D5
:1013E0007727B29E90011124290D311DE0919B02B7
:1013F000F0919C02E20FF31FA081EBE3F2E080E0AA
:10140000458D568D4217530711F461701AC08F5FD6
:1014100036968A30A9F7672BE1F0E7E5F2E080E045
:1014200090E04081411110C0A89EF001A99EF00DEE
:101430001124E55CFD4FA48F368F258F10A2178EE7
:1014400061E00E94450805C0019636968A309105F4
:1014500041F79394B6CFB394A8CF80E090E010E02A
:10146000FC01E55CFD4F21A1211111E006968C33B2
:101470009105B1F70E9466036093970270939802FA
:101480008093990290939A02112369F080915C02F3
:10149000882349F080915A0290915B02019719F4D8
:1014A0008091570203C01092A70280E08093E3016D
:1014B0008BE00E9422019093E2018093E1018BE096
:1014C0000E9422019093E0018093DF012091D701D7
:1014D0003091D8014091D9015091DA016091DB013E
:1014E0007091DC018091DD019091DE010E94730E0C
:1014F0004B015C016093D3017093D4018093D501BB
:101500009093D60123E333E34BEC51E40E94431064
:101510006093CF017093D0018093D1019093D20159
:1015200023E333E34BEC51E4C501B4010E94E40E24
:101530006093CB017093CC018093CD019093CE0149
:101540008092C7019092C801A092C901B092CA01CD
:101550008091AA029091AB0202976CF561E088E05D
:101560000E94820160E088E00E944E0160E08DE010
:101570000E944E0183B7817F846083BF83B78160FF
:1015800083BF8EEB91E090930301809302018091E1
:101590006900837F80936900E99A83B7816083BF84
:1015A000889583B78E7F83BFE9988DEC90E0909308
:1015B0000301809302012091DF013091E0018091CD
:1015C000C5019091C60128173907E1F188E99AE32E
:1015D0009093AB028093AA0220E042E060E18CEAA3
:1015E00092E00E94D50460E080E00E94D8068091DD
:1015F000E1019091E201019729F410920701109204
:10160000060106C081E090E09093070180930601F7
:101610008CEA92E00E94120420E030E040E05FE3B8
:101620006091C7017091C8018091C9019091CA0170
:101630000E94730E6093C1017093C2018093C30135
:101640009093C4012091C7013091C8014091C90114
:101650005091CA016091C1017091C2018091C30192
:101660009091C4010E94DF0E811111C060910601AA
:101670008091BF010E94D8066091B102862F8160DF
:101680008093B10269608CEA92E00E940A04109192
:10169000E301133409F439C12CF480ED810F8A3051
:1016A00028F098C1143409F4E8C094C188E99AE399
:1016B0009093AB028093AA022091BE018091BC015D
:1016C0009091BD01222309F471C0873091050CF07F
:1016D00081C16091BA017091BB01643071050CF059
:1016E00079C101969093BD018093BC018091BF01A7
:1016F0009091C00101969093C0018093BF016F5FEC
:101700007F4F7093BB016093BA01072E000C880BCA
:10171000990B0E948E0F9B01AC0160E070E080E2AB
:1017200091E40E94B01020E030E040E05FE30E94CE
:10173000730E0E94560F4B015C017093B9016093C8
:10174000B801812F110F990BC097BC01990F880B1D
:10175000990B0E948E0F2B013C01B401990C880B50
:10176000990B0E948E0F9B01AC01C301B2010E9434
:10177000E40E9B01AC016093B4017093B5018093BA
:10178000B6019093B7016091D7017091D801809113
:10179000D9019091DA010E94730E6093D701709382
:1017A000D8018093D9019093DA0114C18730910553
:1017B0000CF010C12091BA013091BB0124303105E9
:1017C0000CF008C101969093BD018093BC0140903C
:1017D000DB015090DC016090DD017090DE0120E0C3
:1017E00030E0A901C301B2010E943E10181614F5A1
:1017F000A090BF01B090C001FFEFAF1ABF0AB09236
:10180000C001A092BF0120E030E040E151E4C301FB
:10181000B2010E94DF0E18166CF08091050188233A
:1018200049F08FEFA81AB80AB092C001A092BF0188
:101830001092050120E030E040E251E4C301B20122
:101840000E9443104B015C01812F110F990BC0972F
:10185000BC01990F880B990B0E948E0F9B01AC0164
:10186000C501B4010E94730E6093DB017093DC012B
:101870008093DD019093DE01ADC081E08093BE01D5
:1018800020E030E040E05FE36091C7017091C80163
:101890008091C9019091CA010E94730E6093C101A9
:1018A0007093C2018093C3019093C4018091B301EE
:1018B000811118C020E030E0A9016091DB01709136
:1018C000DC018091DD019091DE010E94DF0E81112B
:1018D00009C08091BF019091C00101969093C00111
:1018E0008093BF0180910401882349F08091BF015A
:1018F0009091C00101969093C0018093BF01109216
:10190000040181E08093B30165C08091B20181112F
:1019100061C08091C7019091C801A091C901B091A7
:10192000CA018093C1019093C201A093C301B093F7
:10193000C4016091DB017091DC018091DD01909127
:10194000DE019B01AC010E94720E6093DB0170937B
:10195000DC018093DD019093DE011092BE011092B4
:10196000BB011092BA016091D7017091D8018091AA
:10197000D9019091DA019B01AC010E94720E609333
:10198000D7017093D8018093D9019093DA0181E057
:10199000809304011092B3011092BD011092BC011A
:1019A0001092C0011092BF01809305018CEA92E071
:1019B0000E94120460E080E00E94D8068DE491E06D
:1019C0000E94850661E080E00E94D8068DE491E0E7
:1019D0000E9485068091E1019091E201019779F5DD
:1019E0002091C7013091C8014091C9015091CA01AD
:1019F0006091C1017091C2018091C3019091C401B5
:101A00000E94DF0E8823D9F060E080E00E94D806B3
:101A10006091D3017091D4018091D5019091D6014C
:101A20000E946F0761E080E00E94D8066091CF01BC
:101A30007091D0018091D1019091D2012EC020915E
:101A4000C7013091C8014091C9015091CA0160910C
:101A5000C1017091C2018091C3019091C4010E94A3
:101A6000DF0E8823E1F060E080E00E94D8066091FC
:101A7000CB017091CC018091CD019091CE010E945B
:101A80006F0761E080E00E94D8066091D3017091F9
:101A9000D4018091D5019091D6010E946F07809169
:101AA000C7019091C801A091C901B091CA0180936A
:101AB000C1019093C201A093C301B093C40180916E
:101AC000AA029091AB0201979093AB028093AA0275
:101AD0008091B201882309F451C060E08BE00E943C
:101AE000820161E08DE00E94820161E08DE00E9450
:101AF0004E0120E042E060E18CEA92E00E94D504D1
:101B00008091E1019091E20160E00197D1F480E0E1
:101B10000E94D8066091D3017091D4018091D501C3
:101B20009091D6010E946F0761E080E00E94D80684
:101B30006091CF017091D0018091D1019091D2013B
:101B400019C080E00E94D8066091CB017091CC0151
:101B50008091CD019091CE010E946F0761E080E0FD
:101B60000E94D8066091D3017091D4018091D50173
:101B70009091D6010E946F071092B2018091DF010F
:101B80009091E0019093C6018093C50180E090E0C0
:101B9000892B09F459CB0E94000056CB10923202D7
:101BA0001092310288EE93E0A0E0B0E0809333021F
:101BB00090933402A0933502B09336028FE191E006
:101BC0009093300280932F021092AF021092AE02D7
:101BD0008BE391E09093AD028093AC021092BC0233
:101BE0008FEF8093BB021092BA021092BD028FE376
:101BF0008093B7021092B8021092B9021092B60206
:101C00001092B50284E08093BE0282E08093BF020E
:101C100081E08093C00280E18093C10280E28093E2
:101C2000C20280E48093C30280E88093C40240E053
:101C300050E063E08CEA92E00E94F80188E99AE3C0
:101C40009093AB028093AA0210923D02109241023F
:101C5000109240021092420281E391E090933C0284
:101C600080933B0280E090E0FC01E55CFD4F148E28
:101C700010A2178E11A206968C339105A9F78BE05E
:101C800091E090939E0280939D0288E091E0909372
:101C9000A00280939F0284E08093A10283E080935E
:101CA000A2028FE091E090939C0280939B028AE0D5
:101CB00090E09093A4028093A30284EF91E090932C
:101CC000A6028093A5021092A9021092A802109277
:101CD0009702109298021092990210929A02109212
:101CE000A70208955058BB27AA270E948A0E0C9479
:101CF00004100E94F60F38F00E94FD0F20F039F416
:101D00009F3F19F426F40C94F30F0EF4E095E7FBD3
:101D10000C94ED0FE92F0E94151058F3BA176207C3
:101D200073078407950720F079F4A6F50C94371013
:101D30000EF4E0950B2EBA2FA02D0B01B9019001E6
:101D40000C01CA01A0011124FF27591B99F0593F2A
:101D500050F4503E68F11A16F040A22F232F342F72
:101D60004427585FF3CF469537952795A795F040C0
:101D70005395C9F77EF41F16BA0B620B730B840BD5
:101D8000BAF09150A1F0FF0FBB1F661F771F881F8D
:101D9000C2F70EC0BA0F621F731F841F48F48795E5
:101DA00077956795B795F7959E3F08F0B0CF9395D7
:101DB000880F08F09927EE0F9795879508950E9450
:101DC000C90F08F481E008950E94F80E0C940410E5
:101DD0000E94FD0F58F00E94F60F40F029F45F3F7B
:101DE00029F00C94ED0F51110C9438100C94F30F52
:101DF0000E94151068F39923B1F3552391F3951BB5
:101E0000550BBB27AA2762177307840738F09F5F1B
:101E10005F4F220F331F441FAA1FA9F335D00E2E88
:101E20003AF0E0E832D091505040E695001CCAF7F5
:101E30002BD0FE2F29D0660F771F881FBB1F2617B8
:101E400037074807AB07B0E809F0BB0B802DBF018F
:101E5000FF2793585F4F3AF09E3F510578F00C945E
:101E6000ED0F0C9438105F3FE4F3983ED4F3869561
:101E700077956795B795F7959F5FC9F7880F911D7F
:101E80009695879597F90895E1E0660F771F881F6B
:101E9000BB1F621773078407BA0720F0621B730B1E
:101EA000840BBA0BEE1F88F7E09508950E945D0F32
:101EB0006894B1110C94381008950E941D1088F098
:101EC0009F5798F0B92F9927B751B0F0E1F0660FFE
:101ED000771F881F991F1AF0BA95C9F714C0B1303F
:101EE00091F00E943710B1E008950C943710672FDD
:101EF000782F8827B85F39F0B93FCCF3869577956E
:101F00006795B395D9F73EF4909580957095619556
:101F10007F4F8F4F9F4F0895E89409C097FB3EF481
:101F200090958095709561957F4F8F4F9F4F992326
:101F3000A9F0F92F96E9BB279395F69587957795A4
:101F40006795B795F111F8CFFAF4BB0F11F460FF64
:101F50001BC06F5F7F4F8F4F9F4F16C0882311F0BC
:101F600096E911C0772321F09EE8872F762F05C0D0
:101F7000662371F096E8862F70E060E02AF09A956B
:101F8000660F771F881FDAF7880F9695879597F960
:101F90000895990F0008550FAA0BE0E8FEEF1616FA
:101FA0001706E807F907C0F012161306E407F5074D
:101FB00098F0621B730B840B950B39F40A2661F0C1
:101FC000232B242B252B21F408950A2609F4A14064
:101FD000A6958FEF811D811D089597F99F6780E871
:101FE00070E060E008959FEF80EC089500240A946B
:101FF0001616170618060906089500240A941216E4
:102000001306140605060895092E0394000C11F416
:10201000882352F0BB0F40F4BF2B11F460FF04C0C3
:102020006F5F7F4F8F4F9F4F089557FD9058440F1C
:10203000551F59F05F3F71F04795880F97FB991F27
:1020400061F09F3F79F087950895121613061406E4
:10205000551FF2CF4695F1DF08C016161706180671
:10206000991FF1CF86957105610508940895E8944C
:10207000BB2766277727CB0197F908950E94C90FE0
:1020800008F48FEF08950E9456100C9404100E94DB
:10209000F60F38F00E94FD0F20F0952311F00C94FC
:1020A000ED0F0C94F30F11240C9438100E941510AE
:1020B00070F3959FC1F3950F50E0551F629FF0019B
:1020C000729FBB27F00DB11D639FAA27F00DB11DB4
:1020D000AA1F649F6627B00DA11D661F829F22273D
:1020E000B00DA11D621F739FB00DA11D621F839FC4
:1020F000A00D611D221F749F3327A00D611D231F9A
:10210000849F600D211D822F762F6A2F11249F57E7
:1021100050409AF0F1F088234AF0EE0FFF1FBB1FEA
:10212000661F771F881F91505040A9F79E3F5105A9
:1021300080F00C94ED0F0C9438105F3FE4F3983E60
:10214000D4F3869577956795B795F795E7959F5F53
:10215000C1F7FE2B880F911D9695879597F90895E5
:10216000FA01EE0FFF1F309621053105A1F161152F
:10217000710561F48038BFE39B0749F1689490389A
:10218000810561F08038BFEF9B0741F099234AF544
:10219000FF3FE1053105210519F1E8940894E79521
:1021A000D901AA2329F4AB2FBE2FF85FD0F310C0BA
:1021B000FF5F70F4A695E0F7F73950F019F0FF3A99
:1021C00038F49F779F930DD00F9007FC9058089597
:1021D00046F00C94F30F60E070E080E89FE3089510
:1021E0004FE79F775F934F933F932F930E94B011D8
:1021F0002F913F914F915F910E9443100C940D11CC
:102200000E94C90F880B990B089529F416F00C94BD
:10221000ED0F0C9437100C94F30F0E941D10A8F3CF
:102220009638A0F707F80F92E8942BE33AEA48EBC8
:102230005FE70E9459100F920F920F924DB75EB751
:102240000F920E94F811E8E6F0E00E943F114F91D2
:102250005F91EF91FF91E595EE1FFF1F49F0FE574B
:10226000E0684427EE0F441FFA95E1F74195550BBE
:102270000E9472110F9007FE0C9466110895DF936F
:10228000CF931F930F93FF92EF92DF927B018C010C
:10229000689406C0DA2EEF010E945610FE01E89401
:1022A000A5912591359145915591A6F3EF010E9495
:1022B0008A0EFE019701A801DA9469F7DF90EF908A
:1022C000FF900F911F91CF91DF9108959B01AC0179
:1022D00060E070E080E89FE30C94E40E0C94ED0F56
:1022E0000C942C120E941D10D8F39923C9F3940F5B
:1022F000511DA3F39150504094F059F0882332F0CF
:10230000660F771F881F91505040C1F79E3F5105BF
:102310002CF7880F911D9695879597F908955F3F43
:10232000ACF0983E9CF0BB27869577956795B7955E
:1023300008F4B1609395C1F7BB0F58F711F460FF33
:10234000E8CF6F5F7F4F8F4F9F4FE3CF0C943810D4
:1023500016F00C942C120C94F30F68940C94ED0F5F
:102360000E941D10A8F39923C1F3AEF3DF93CF931E
:102370001F930F93FF92C92FDD2788232AF02197FF
:10238000660F771F881FDAF720E030E040E85FEB48
:102390009FE3883920F0803E38F021968F770E94A5
:1023A000730EE0E9F0E004C00E94730EEDEBF0E084
:1023B0000E943F118B01BE01EC01FB2E6F5771098A
:1023C0007595771F880B990B0E948E0F28E132E7D5
:1023D00041E35FE30E945610AF2D9801AE01FF90DC
:1023E0000F911F91CF91DF910E948A0E0C940410DF
:1023F000FA01DC01AA0FBB1F9B01AC01BF5728F4F7
:10240000222733274427507820C0B75190F4AB2FB0
:102410000024469537952795011CA395D2F30020FB
:1024200071F0220F331F441FB395DAF30ED00C94D2
:10243000720E61307105A0E88A07B94630F49B013D
:10244000AC016627772788279078309621F0208383
:1024500031834283538308959F3F31F0915020F49C
:10246000879577956795B795880F911D9695879570
:1024700097F90895A1E21A2EAA1BBB1BFD010DC0FE
:10248000AA1FBB1FEE1FFF1FA217B307E407F50724
:1024900020F0A21BB30BE40BF50B661F771F881F00
:1024A000991F1A9469F760957095809590959B0196
:1024B000AC01BD01CF010895EE0FFF1F0590F4910F
:1024C000E02D099481E090E0F8940C946712F89460
:0224D000FFCF3C
:1024D200CD00CD0001010100080A060904050731FB
:1024E200323334353637383943304400000000A1E6
:1024F200027102D1024B0269025A024C0200000030
:1025020000CF017E014B01000000000C02CE00D181
:1025120002D002D504F8014C032B03983A302E3036
:10252200303030006E616E00696E66006F76660054
:00000001FF
